:020000040800F2
:10000000E806002029020008491B0008891700089B
:10001000451B0008310300086D1B000800000000AC
:10002000000000000000000000000000511B00085C
:1000300035030008000000004D1B0008551B000898
:10004000430200084302000843020008430200087C
:10005000430200084302000843020008430200086C
:100060004302000839030008430200084302000865
:10007000430200084302000843020008430200084C
:10008000430200084302000843020008430200083C
:10009000430200084302000843020008410300082D
:1000A000430200084302000843020008430200081C
:1000B000430200084302000843020008430200080C
:1000C00043020008430200084302000843020008FC
:1000D00043020008430200084302000843020008EC
:1000E00043020008430200084302000843020008DC
:1000F00043020008430200084302000843020008CC
:1001000000000000000000000000000043020008A2
:1001100043020008430200084302000843020008AB
:10012000430200084302000843020008430200089B
:100130004302000843020008000000000000000025
:1001400043020008430200084302000800000000C8
:10015000000000000000000000000000000000009F
:1001600000000000000000004302000843020008F5
:100170004302000800000000000000000000000032
:10018000000000004302000800F002F800F03CF814
:100190000AA090E8000C82448344AAF10107DA45E2
:1001A00001D100F031F8AFF2090EBAE80F0013F0F8
:1001B000010F18BFFB1A43F001031847A01A0000F3
:1001C000C01A0000103A24BF78C878C1FAD8520784
:1001D00024BF30C830C144BF04680C6070470000C1
:1001E0000023002400250026103A28BF78C1FBD840
:1001F000520728BF30C148BF0B6070471FB501F0E0
:1002000007FD1FBD10B510BD00F058F81146FFF7EF
:10021000F5FF01F0ADFC00F076F803B4FFF7F2FF54
:1002200003BC00F07DF800000948804709480047FA
:10023000FEE7FEE7FEE7FEE7FEE7FEE7FEE7FEE796
:10024000FEE7FEE704480549054A064B70470000F3
:10025000591B000889010008E8000020E80600207A
:10026000E8020020E80200204FF0000200B513462B
:1002700094469646203922BFA0E80C50A0E80C50C6
:10028000B1F12001BFF4F7AF090728BFA0E80C5077
:1002900048BF0CC05DF804EB890028BF40F8042B70
:1002A00008BF704748BF20F8022B11F0804F18BFDD
:1002B00000F8012B7047704770477047754600F093
:1002C0002BF8AE4605006946534620F007008546E8
:1002D00018B020B5FFF7B6FFBDE820404FF000068C
:1002E0004FF000074FF000084FF0000BAC46ACE8B1
:1002F000C009ACE8C009ACE8C009ACE8C00921F00D
:1003000007018D46704710B50446AFF300802046C4
:10031000BDE81040FFF781BF004870471000002083
:1003200001491820ABBEFEE726000200704700001E
:10033000FEE7000070470000082000F0C9B9000087
:100340004FF4807000F0C4B972B600BFFEE7000041
:10035000F0B583B043F2660640F298050446468045
:1003600046F23060C2F20005ADF80800642702AA28
:10037000284688210223009700F04CFB42F2271008
:10038000E68142F22176ADF80A000DF10A02284614
:10039000882102236680009700F03CFBE68003B0D2
:1003A000F0BD000010B5044600F02CF8204600F027
:1003B000AFF8A08B9FED0F1A00EE100AE08BB8EE9D
:1003C000400A80EE010A02EE100AB8EE422A82EEDE
:1003D000011A9FED092A9FED0A3A20EE020A9FEDCD
:1003E000072A30EE020A21EE031A84ED080A84ED92
:1003F000091A10BD00FF7F4700002F43000034C2E0
:100400000000C84210B584B0044616300621CDE97C
:10041000000140F298004FF0C80CC2F200008921A0
:100420004FF460420223CDF808C000F0F1FBE08AEF
:10043000B4F8191000BA000CA08308BA48F2000101
:10044000020CE07EC0F2980181EA0221E28320756D
:10045000130458BF110281F480024B0248BF82F49A
:10046000442181F400128B0248BF82F4C42181F43C
:100470008012CB0248BF82F4443181F400220B0386
:1004800048BF82F4C43181F480224B0348BF82F418
:10049000444181F400328B0348BF82F4C44181F4AB
:1004A0008032CB0348BF82F4445149F680020B04EA
:1004B00048BF514044F640424B0448BF514042F2CD
:1004C00020628B0448BF514041F21032CB0448BF38
:1004D000514040F688120B0548BF514040F2C442DB
:1004E0004B0548BF514040F262228B0548BF514046
:1004F00040F23112CB0548BF5140081AB0FA80F0E3
:100500004109C820617504B0BDE8104000F0CAB8C8
:1005100070B586B040F29806044603200DF1130131
:10052000C2F20006C825CDE90010304689214FF2FD
:100530002D320223029500F06BFB9DF813009DF80D
:1005400014109DF8152041EA00236381C309237329
:10055000830643F26D0358BF43F26603E381C0F3A1
:10056000C003C0F380006074C1F30010607000200D
:10057000608243F24100608044F23010237422759F
:10058000ADF8160064250DF11602304688210223CD
:10059000009500F03FFA628948F20001C0F298012C
:1005A00081EA0221207D130458BF110281F48002E8
:1005B0004B0248BF82F4442181F400128B0248BFF1
:1005C00082F4C42181F48012CB0248BF82F444310A
:1005D00081F400220B0348BF82F4C43181F48022ED
:1005E0004B0348BF82F4444181F400328B0348BF7F
:1005F00082F4C44181F48032CB0348BF82F4445179
:1006000049F680020B0448BF514044F640424B0477
:1006100048BF514042F220628B0448BF514041F232
:100620001032CB0448BF514040F688120B0548BF3A
:10063000514040F2C4424B0548BF514040F2622253
:100640008B0548BF514040F23112CB0548BF5140A5
:10065000081AB0FA80F04009607506B070BD00005D
:1006600010B582B0044643F2A20060804AF2302006
:10067000ADF8060040F298004FF0640CC2F20000A2
:100680000DF1060288210223CDF800C000F0C2F966
:10069000052000F007F8012060702046FFF738FFC2
:1006A00002B010BDB0B5044600F012F9054640F2A4
:1006B0000000C2F200000078611C18BF044400BFB3
:1006C00000F006F9401BA042FAD3B0BD704700000D
:1006D00040F21441C4F201010A68024214BF0860EA
:1006E0007047FFF7F3BF00002DE9F04F84B08E464E
:1006F00041F20002C4F60002DEF8004005219042FB
:10070000019008BF0421002C009100F0D7800198CF
:10071000002500F138424FEAB22300980127002655
:100720004FF00008042B38BF18460090CDF808E0C1
:100730000EE000BFDEF8004008F1010834FA07F1CE
:1007400006F1020607F1010705F1040500F0B68085
:10075000A7F1010A012000FA0AF314EA0309E9D01B
:10076000DEF804C00CF0030BABF10104012C17D828
:100770000198744681680322E468B2409143B44012
:100780002143816041684FEA480E9943CCF300133E
:1007900003FA0AF30446D043194361600CE000BF3A
:1007A0000321B140019CC843BBF1030FB64603D1FE
:1007B000B6464FF0030B23E0E168029A01409368CC
:1007C000BBF1020F03FA0EF341EA0301E16017D116
:1007D0006FF0030101EA5A01214405F01C040F23C4
:1007E000D1F820C003FA04FB13692CEA0B0CA340D8
:1007F00043EA0C03019C0B62D2F804C00CF0030B1B
:1008000021680BFA0EF2014011432160DDF808E087
:100810001CF4403F8ED041F21800C4F2020001687F
:1008200040F2004C41F0010101600168C4F2010C8A
:1008300001F00101039103992AF003014FF6084AE0
:100840006144CFF6FF7A05F00C030F2051F80A201F
:1008500000FA03F40098A24300FA03F31A4341F8A4
:100860000A20DCF80010DEF8042041EA0903D40372
:1008700058BF21EA0903CCF80030DCF804109403D7
:1008800041EA090358BF21EA0903CCF80430DCF837
:10089000081040F20C4041EA0903D40258BF21EA93
:1008A0000903CCF80830C4F201000168920241EA61
:1008B000090358BF21EA090303603BE704B0BDE820
:1008C000F08F00001823002A08BF2823C15070476A
:1008D00040F2E400C2F200000068704790F8412046
:1008E000202A03D190F84020012A01D1022070472C
:1008F000242280F841200268136823F0010313606A
:10090000136823F48053136013681943116011684E
:1009100041F001011160202180F84110002180F890
:10092000401008467047000090F84120202A03D16B
:1009300090F84020012A01D102207047242280F83B
:1009400041200268136823F001031360136823F445
:10095000706343EA01211160116841F001011160E7
:10096000202180F84110002180F84010084670478F
:10097000002804BF0120704710B5044690F84100DC
:1009800028B9002084F84000204600F077FA24209F
:1009900084F8410094E80910E2680168012A21F016
:1009A0000101016023F070610161816821F400415F
:1009B000816003D14CF40041816007E04CF40441B4
:1009C000022A816004BF4FF400614160416804F174
:1009D000100C41F0007141F400414160C16821F404
:1009E0000041C1609CE80E10114341EA0321C1603F
:1009F000216A41EA0C010160016841F001010160D6
:100A000000202021606484F84110206384F84200B3
:100A100010BD00002DE9F04F81B0044690F8410070
:100A2000202803D194F84000012803D1022001B00E
:100A3000BDE8F08F01201F461646884684F8400026
:100A4000FFF746FF216805468A6912040AD500BFF0
:100A5000FFF73EFF401B192800F2CA802168886911
:100A60000004F5D4212084F84100102084F84200CD
:100A700000206064666267856063608D42F20002F8
:100A800049F60003C8F2FF12B0F5807FC7F60043B5
:100A90000AD348686FF39F28184040EA08001043C3
:100AA0004860FF200DE000BF608D4F686FF39F2806
:100AB0003B40C7B248EA07473B4302F580321A433E
:100AC0004A602085608D0A9F00285FD049F6004962
:100AD00040F2000BCFF600497E1C4FF0FF0AC0F237
:100AE000FF1B0EE0608D20854A68C0B202EA090251
:100AF00048EA0040104340F000704860608D0028D4
:100B000044D0204639462A4600F040FF00285AD1FA
:100B1000606A216810F8012B8A626062608D01387A
:100B20006085208D01382085628D002AE6D0000482
:100B3000E4D1886900060DD4D6B1002F56D000BF8D
:100B4000FFF7C6FE401BB84252D8216888690006EC
:100B5000F6D500BF608DB0F5807FC3D3A4F828A080
:100B6000486800EA090040EA080040EA0B00C4E7D0
:100B700088690006EED4886900065CBF88695FEA70
:100B80000060E7D488690006F2D5E3E7886900F0E1
:100B900020008FB1E0B900BF204639462A4600F058
:100BA000F5FD80B9FFF794FE401BB84220D82168BC
:100BB00088698006F0D50BE050B9204600212A460E
:100BC00000F0E4FD90B1012001B0BDE8F08F00BF5E
:100BD0002020C8614A684EF60003CFF600631A4031
:100BE0004A6084F8410000200AE000BFFFF770FE71
:100BF000606C40F020006064202084F841000120F7
:100C0000002184F8421084F8401001B0BDE8F08F54
:100C10002DE9F04F83B0044690F8410020280DD113
:100C2000DDF830A0BAF1000F0CD0DDF834B0BBF124
:100C3000000F07D094F8400001280BD1022003B028
:100C4000BDE8F08F4FF400706064012003B0BDE890
:100C5000F08F00BF01201F461546894684F84000EA
:100C6000FFF736FE21680646896909040AD500BFE8
:100C7000FFF72EFE801B192800F2F08020688069A3
:100C80000004F5D40E99222084F8410040204FF052
:100C9000000884F84200C4F84480C4F824A08A46BE
:100CA000A4F82AB0C4F834800091204649462A4668
:100CB0003B46019600F0C4FD30B184F8408001202D
:100CC00003B0BDE8F08F00BF608D5546B0F5807F62
:100CD00012D3206849F600024168C7F6004211406D
:100CE0006FF39F2942F200424944C8F2FF121143B8
:100CF0004160FF2115E000BF618D206849F60003C7
:100D00004268C7F600431A406FF39F29CBB249EA05
:100D100003431A44A2F1FC42A2F55C4202F5803280
:100D2000426049F6004840F2000BCFF600486F1CC5
:100D30004FF0FF0AC0F2FF1B2185816949070FD4DC
:100D4000002F3DD0002D00F0878000BFFFF7C0FDD1
:100D5000801BA84200F28280206881694907F5D58E
:100D6000406A616A0870606A218D01306062481EC5
:100D70002085618D01396185618D002948D000048D
:100D800046D12068816909060BD43FB3002D63D09A
:100D9000FFF79EFD801BA84260D820688169090684
:100DA000F6D5618DB1F5807F26D3A4F828A04168DF
:100DB00001EA080141EA090141EA0B0127E000BF0D
:100DC00081694907CCD4816949075CBF81695FEAC1
:100DD0004171C5D481694907F2D5C1E78169090626
:100DE000DFD4816909065CBF81695FEA0161D8D4FB
:100DF00081690906F2D5D4E7618D21854268C9B2BF
:100E000002EA080249EA0141114341F000714160E0
:100E1000608D28B12068816949077FF591AF9FE710
:100E200020462946324600F07BFD00287FF40DAFB6
:100E300020682021C16142684EF60003CFF60063AE
:100E40001A404260002084F8411084F8420084F87F
:100E5000400003B0BDE8F08FFFF73AFD606C40F052
:100E600020006064202084F84100002084F84200C3
:100E700084F84000012003B0BDE8F08F10B586B0C3
:100E8000006845F20041C4F20001884202D006B079
:100E900010BD00BF41F21404C4F20204206801A98D
:100EA00040F480202060206800F4802001900198A8
:100EB0004FF4407001901220029000200390032014
:100EC00004900420059040F20040C4F60000FFF7B3
:100ED0000BFCA06840F40010A060A06800F40010B3
:100EE0000090009806B010BD40F2000040F2E4010E
:100EF000C2F20000C2F2000100780A6810440860E3
:100F00007047000080B542F20000C4F202000168A0
:100F100041F010010160032000F082F80F2000F082
:100F200005F800F027F8002080BD000070B540F201
:100F30000006C2F2000640F208013278C2F2000157
:100F40004FF47A730968B3FBF2F20446B1FBF2F195
:100F5000084600F003FC0F2C4FF0010508D838B903
:100F60004FF0FF3021460022002500F02DF874607C
:100F7000284670BD82B041F21800C4F20200016838
:100F800041F001010160016801F001010191019945
:100F9000416841F080514160406800F0805000900D
:100FA000009802B070470000002848BF704700F06A
:100FB0001F01012202FA01F14EF200124009CEF2A5
:100FC000000242F82010704710B54EF60C5CCEF2CD
:100FD000000CDCF80030C3F3022E8EF00704042C62
:100FE00028BF0424BEF103034FF0FF3E0EFA04F4C1
:100FF00038BF0023A14399400EFA03F39A431143EB
:1010000000F00F02043A624409010C3200F160431F
:10101000B0F1FF3FC8BF03F56442117010BD00007E
:101020004EF60C51CEF200010A684FF6FF031A404B
:1010300060F30A2242F0806040F0FD700860704763
:101040002DE9F04182B00446807841F23006C007B5
:10105000C4F2020656D056F8140C10F080580BD18A
:1010600056F8140C40F0805046F8140C56F8140C46
:1010700000F080500190019847F20007C4F2000789
:101080003868C00512D4386840F480703860FFF7C3
:101090001FFC05463868C00508D4FFF719FC401B43
:1010A0006428F7D9032002B0BDE8F08156F8100C8F
:1010B00010F4407015D0616801F44071884210D07E
:1010C00056F8100C40F24042C4F24222012320F4B0
:1010D000407113600023C007136046F8101C40F0F5
:1010E000A38056F8100C616820F440700843B8F1F2
:1010F000000F46F8100C05D156F8140C20F0805063
:1011000046F8140C2068C1071CD1810722D441077E
:1011100028D481062ED4810334D441063CD401075F
:1011200042D4C10648D481054ED4010656D4C10527
:101130005ED4C10466D480046CD4002002B0BDE843
:10114000F08100BF3168A26821F0030111433160D2
:101150008107DCD53168E26821F440311143316008
:101160004107D6D53168226921F44021114331600D
:101170008106D0D53168E26921F010011143316058
:101180008103CAD556F82C1CA26B21F480011143AF
:1011900046F82C1C4106C2D53168226A21F0200194
:1011A000114331600107BCD53168626921F44011F7
:1011B00011433160C106B6D53168A26921F44001FE
:1011C000114331608105B0D556F82C1CE26A21F438
:1011D0000001114346F82C1C0106A8D556F8041C42
:1011E000626A21F4F871114346F8041CC105A0D5C8
:1011F00056F8041CA26A21F47851114346F8041CE5
:10120000C10498D53168226B21F48071114331609B
:10121000800492D53068616B20F400700843306020
:10122000002002B0BDE8F081FFF752FB054641F215
:10123000883700BF56F8100C80073FF552AFFFF714
:1012400047FB401BB8424FF00300F3D9E9E7000029
:101250002DE9F04381B0002877D042F20008C4F2B3
:1012600002080446D8F800000D4600F00700884246
:101270000CD2D8F8000020F007002843C8F800007E
:10128000D8F8000000F00700A8425ED1206841F2C3
:1012900004098107C4F2020907D5D9F80010A26831
:1012A00021F0F0011143C9F80010C00744D1D8F86B
:1012B000000000F00700A8420CD9D8F8000020F088
:1012C00007002843C8F80000D8F8000000F0070025
:1012D000A8423AD12068410707D5D9F80010E26842
:1012E00021F4E0611143C9F80010000708D5D9F8CE
:1012F0000000216920F4605040EAC100C9F80000F4
:10130000D9F8002002F00C00082841F20020C0F2B9
:101310007A0051D141F63A43C2F38341C0F600034B
:10132000595CD9F82830D2033CD440F60010C0F202
:101330003D00484340E000BF606802280AD0012811
:101340002AD159F8041C890308D4012001B0BDE852
:10135000F08300BF59F8041C8901F6D5D9F80010B4
:1013600021F003010843C9F80000FFF7B1FA06466F
:1013700041F28837D9F80000616800F00C00B0EB4A
:10138000810F94D0FFF7A4FA801BB842F2D9032052
:1013900001B0BDE8F08300BF59F8041C8907D4D51B
:1013A000DCE700BF03F00F0241F64A43C0F600033A
:1013B0009A5CB0FBF2F04843D9F8001041F62A429B
:1013C000C1F30311C0F60002515C40F2080220FA9A
:1013D00001F140F20400C2F200000068C2F2000213
:1013E0001160FFF7A3FD002001B0BDE8F08300000D
:1013F0002DE9F04182B0002850D00446007841F237
:101400000006C007C4F202060AD0706800F00C00A3
:10141000042840F085803068800301D56068E8B317
:10142000207880071AD5706810F00C0F09D070680A
:1014300000F00C00082840F0A5807068C00300F19F
:10144000A1803068800702D52069012826D1306844
:10145000616920F0F80040EAC100306020780007A0
:1014600020D42078400735D4E56995B1706800F044
:101470000C00082840F0C280012D0FD07068216A4E
:1014800000F480328A4209D1616A00F47010884207
:1014900004D1002002B0BDE8F08100BF012002B0FD
:1014A000BDE8F081A069002800F094800020C4F21B
:1014B00042200121C0F88014FFF70AFA054600BF58
:1014C000706A8007CDD4FFF703FA401B0228F7D9D2
:1014D0001CE100BFF06910F0805808D1F06940F0BD
:1014E0008050F061F06900F080500190019847F25F
:1014F0000007C4F200073868C00559D4386840F4C2
:1015000080703860FFF7E4F9054600BF3868C00511
:101510004ED4FFF7DDF9401B6428F7D9F6E000BF91
:10152000706800F00C00082803D17068C0033FF514
:1015300072AF6068B0F5A02F00F09480B0F5803FE6
:1015400000F09480002840F09580306820F48030CE
:101550003060306820F480203060F06AA16820F0AC
:101560000F000843F062FFF7B3F9054630688003C7
:101570007FF556AFFFF7ACF9401B64284FF003002E
:10158000F4D987E72069002840F20000C4F2422025
:1015900056D001210160FFF79BF9054630688007AE
:1015A0003FF555AFFFF794F9401B0228F6D9ADE09F
:1015B000E068002800F07A80052800F0918001287A
:1015C00000F09280306A20F001003062306A20F032
:1015D00004008CE00020C4F242200021C0F88014F6
:1015E000FFF776F9054600BF706A80077FF539AFCF
:1015F000FFF76EF9401B0228F6D987E00027C4F2F6
:10160000422700203866FFF763F9022D05460BD10B
:101610003068800140F18880FFF75AF9401B0228AA
:101620004FF00300F4D935E7306880017FF531AF22
:10163000FFF74EF9401B02284FF00300F4D929E7C9
:1016400000210160FFF744F9054600BF30688007BC
:101650007FF504AFFFF73CF9401B02284FF0030071
:10166000F4D917E7306840F480203060306840F4E7
:10167000803006E0306820F480303060306820F43C
:1016800080203060F06AA16820F00F000843F0620B
:10169000FFF71EF9054600BF306880033FF5C0AE76
:1016A000FFF716F9401B6428F6D92FE0306A20F0C6
:1016B00001003062306A20F004003062FFF708F960
:1016C000054641F2883700BF306A800722D5FFF710
:1016D000FFF8401BB8424FF00300F5D9DAE600BF2F
:1016E000306A40F004003062306A40F0010030623D
:1016F000FFF7EEF8054641F2883700BF306A8007F1
:1017000008D4FFF7E5F8401BB842F7D9032002B030
:10171000BDE8F081B8F1000F7FF4A6AEF06920F0CB
:101720008050F061A0E600BF7068D4E9082120F481
:10173000741008431043706001203866FFF7C8F842
:10174000044600BF306880013FF5A3AEFFF7C0F844
:10175000001B02284FF00300F4D99BE6411E002035
:10176000B0EB116F1CBF012070474EF21002CEF299
:10177000000251604EF62351CEF20001F0230B70AF
:101780000721906011607047FEE7000070B50446C5
:10179000006815468369DA065CBF002070BD0E46FE
:1017A0004168890103D4416841F480414160816905
:1017B000890610D4002E3FD0711C35D1816989066D
:1017C00009D4816989065CBF81695FEA816102D4BD
:1017D00081698906F2D51021C1612021C161816929
:1017E000890744BF002181628169C90703D18169EA
:1017F00041F00101816141684EF60002CFF60062BE
:10180000114041600420616C08436064202084F82A
:101810004100002084F8420084F84000012070BD9F
:10182000206881698906D6D4FFF752F8401BB04280
:10183000F6D92020E7E700BFFFF74AF82020E2E7CB
:101840002DE9F041044600681D461746426849F6F6
:101850000003C7F600431A406FF39F21EBB241EA41
:1018600003411144DDF81C80069E41F0004141F423
:101870000051416020463146424600F087F818B1D9
:101880000120BDE8F08100BF012D09D02068390A90
:10189000816220463146424600F078F80028EFD1B8
:1018A0002168F8B288628869400623D436B3701C78
:1018B00018D1886940061DD4886940065CBF8869D4
:1018C0005FEA406016D4886940064FF00000F0D50A
:1018D00023E000BF2068806940064FF0000048BF49
:1018E000BDE8F081FEF7F4FFA0EB0800B042F1D9AB
:1018F00006E000BF0020BDE8F08100BFFEF7E8FF72
:10190000606C40F020006064202084F841000020DA
:1019100084F8420084F840000120BDE8F081000016
:1019200070B51546044689B10E4600BF206880692F
:10193000800619D4204631462A46FFF727FF88B98A
:10194000FEF7C6FF401BB042F0D911E02068806965
:10195000800644BF002070BD204600212A46FFF7C4
:1019600015FF18B1012070BD002070BDFEF7B0FF5B
:10197000606C40F020006064202084F8410000206A
:1019800084F8420084F84000012070BD70B5044620
:1019900000688069800710D415460E4611B3701C8C
:1019A00017D100BF20464FF0FF312A46FFF7EEFE69
:1019B000F0B9206880698007F4D5002070BD00BFB1
:1019C000FEF786FF401BB04216D82068806980076A
:1019D000F3D4204631462A46FFF7D8FE0028EFD040
:1019E00006E000BF204600212A46FFF7CFFE08B1DF
:1019F000012070BDFEF76CFF606C40F02000606459
:101A0000202084F84100002084F8420084F840003F
:101A1000012070BD2DE9F04186B0002641F214008E
:101A2000CDE90466C4F20200016840F2004441F4CA
:101A3000002101600168C4F6000401F40021009156
:101A400000990168012241F48001016001684FF0B2
:101A5000400801F48001009100990168012741F4D8
:101A600000310160016801F40031009100990168C2
:101A700041F4802101600068402100F48020009042
:101A800000982046FEF71EFF4FF4847001904FF43B
:101A9000041001ADCDE902064FF090402946FEF753
:101AA00023FE20462946CDE90187CDE90367FEF7ED
:101AB0001BFE092000210022FFF786FA0920FFF70C
:101AC00073FA172000210022FFF77EFA1720FFF794
:101AD0006BFA06B0BDE8F08180B540F2980045F29F
:101AE0000041C2F20000C4F2000148F6D3520023C4
:101AF000C1F280024FF0010C80E80E10C0E90433FF
:101B0000C0E906330362FEF733FF002818BFFEF773
:101B10001BFC40F29800C2F200000021FEF7DEFE3E
:101B2000002818BFFEF710FC40F29800C2F2000037
:101B30000021FEF7F9FE002808BF80BDBDE8804007
:101B4000FEF702BCFEE70000FEE700007047000061
:101B500070470000FFF7C8B94EF68850CEF200007B
:101B6000016841F47001016070470000FEE7000069
:101B70009EB0FFF7C7F96846002404303821CDE94C
:101B80001944CDE91744FEF76FFB0120149018901B
:101B90004FF4E0104FF4803102251D9014A8CDE9D8
:101BA0001514CDE91B51FFF723FC18B172B600BF25
:101BB000FEE700BF0F20CDE90F054FF48060CDE9AF
:101BC00012040FA802211194FFF742FB10B172B664
:101BD000FEE700BF20200090102007906846FFF726
:101BE0002FFA18B172B600BFFEE700BFFFF712FF71
:101BF000FFF772FF40F27004C2F200042046FEF7C5
:101C00002FFD2046FEF7A4FB2046FEF7CBFBFBE7AB
:101C1000F1EE100A4FF6FF71C0F2C03120EA010068
:101C200040F04070E1EE100A704700000000000034
:101C30000000010203040607080902030405060761
:101C400008090A0B0C0D0E0F101001020304050603
:101C50000708090A0B0C0D0E0F100000801C00086D
:101C60000000002010000000C4010008901C0008C3
:101C700010000020D8060000E0010008000000006D
:101C8000010000001000000000127A0000000000B7
:040000050800018965
:00000001FF
